{
  "contractName": "BActions",
  "abi": [
    {
      "constant": false,
      "inputs": [
        {
          "internalType": "contract BFactory",
          "name": "factory",
          "type": "address"
        },
        {
          "internalType": "address[]",
          "name": "tokens",
          "type": "address[]"
        },
        {
          "internalType": "uint256[]",
          "name": "balances",
          "type": "uint256[]"
        },
        {
          "internalType": "uint256[]",
          "name": "denorms",
          "type": "uint256[]"
        },
        {
          "internalType": "uint256",
          "name": "swapFee",
          "type": "uint256"
        },
        {
          "internalType": "bool",
          "name": "finalize",
          "type": "bool"
        }
      ],
      "name": "create",
      "outputs": [
        {
          "internalType": "contract BPool",
          "name": "pool",
          "type": "address"
        }
      ],
      "payable": false,
      "stateMutability": "nonpayable",
      "type": "function"
    },
    {
      "constant": false,
      "inputs": [
        {
          "internalType": "contract BPool",
          "name": "pool",
          "type": "address"
        },
        {
          "internalType": "address[]",
          "name": "tokens",
          "type": "address[]"
        },
        {
          "internalType": "uint256[]",
          "name": "balances",
          "type": "uint256[]"
        },
        {
          "internalType": "uint256[]",
          "name": "denorms",
          "type": "uint256[]"
        }
      ],
      "name": "setTokens",
      "outputs": [],
      "payable": false,
      "stateMutability": "nonpayable",
      "type": "function"
    },
    {
      "constant": false,
      "inputs": [
        {
          "internalType": "contract BPool",
          "name": "pool",
          "type": "address"
        },
        {
          "internalType": "bool",
          "name": "publicSwap",
          "type": "bool"
        }
      ],
      "name": "setPublicSwap",
      "outputs": [],
      "payable": false,
      "stateMutability": "nonpayable",
      "type": "function"
    },
    {
      "constant": false,
      "inputs": [
        {
          "internalType": "contract BPool",
          "name": "pool",
          "type": "address"
        },
        {
          "internalType": "uint256",
          "name": "newFee",
          "type": "uint256"
        }
      ],
      "name": "setSwapFee",
      "outputs": [],
      "payable": false,
      "stateMutability": "nonpayable",
      "type": "function"
    },
    {
      "constant": false,
      "inputs": [
        {
          "internalType": "contract BPool",
          "name": "pool",
          "type": "address"
        },
        {
          "internalType": "address",
          "name": "newController",
          "type": "address"
        }
      ],
      "name": "setController",
      "outputs": [],
      "payable": false,
      "stateMutability": "nonpayable",
      "type": "function"
    },
    {
      "constant": false,
      "inputs": [
        {
          "internalType": "contract BPool",
          "name": "pool",
          "type": "address"
        }
      ],
      "name": "finalize",
      "outputs": [],
      "payable": false,
      "stateMutability": "nonpayable",
      "type": "function"
    },
    {
      "constant": false,
      "inputs": [
        {
          "internalType": "contract BPool",
          "name": "pool",
          "type": "address"
        },
        {
          "internalType": "uint256",
          "name": "poolAmountOut",
          "type": "uint256"
        },
        {
          "internalType": "uint256[]",
          "name": "maxAmountsIn",
          "type": "uint256[]"
        }
      ],
      "name": "joinPool",
      "outputs": [],
      "payable": false,
      "stateMutability": "nonpayable",
      "type": "function"
    },
    {
      "constant": false,
      "inputs": [
        {
          "internalType": "contract BPool",
          "name": "pool",
          "type": "address"
        },
        {
          "internalType": "address",
          "name": "tokenIn",
          "type": "address"
        },
        {
          "internalType": "uint256",
          "name": "tokenAmountIn",
          "type": "uint256"
        },
        {
          "internalType": "uint256",
          "name": "minPoolAmountOut",
          "type": "uint256"
        }
      ],
      "name": "joinswapExternAmountIn",
      "outputs": [],
      "payable": false,
      "stateMutability": "nonpayable",
      "type": "function"
    }
  ],
  "bytecode": "0x608060405234801561001057600080fd5b50612659806100206000396000f3fe608060405234801561001057600080fd5b50600436106100785760003560e01c80631a78a2751461007d5780631eccc185146101bf5780634ef39b75146101ef5780637b7d6c68146102155780638a5c57df14610243578063991991c7146102c6578063c1762b15146102f2578063e0d945bf1461032e575b600080fd5b6101a3600480360360c081101561009357600080fd5b6001600160a01b038235169190810190604081016020820135600160201b8111156100bd57600080fd5b8201836020820111156100cf57600080fd5b803590602001918460208302840111600160201b831117156100f057600080fd5b919390929091602081019035600160201b81111561010d57600080fd5b82018360208201111561011f57600080fd5b803590602001918460208302840111600160201b8311171561014057600080fd5b919390929091602081019035600160201b81111561015d57600080fd5b82018360208201111561016f57600080fd5b803590602001918460208302840111600160201b8311171561019057600080fd5b919350915080359060200135151561044c565b604080516001600160a01b039092168252519081900360200190f35b6101ed600480360360408110156101d557600080fd5b506001600160a01b0381351690602001351515610b4f565b005b6101ed6004803603602081101561020557600080fd5b50356001600160a01b0316610bb4565b6101ed6004803603604081101561022b57600080fd5b506001600160a01b0381358116916020013516610d41565b6101ed6004803603606081101561025957600080fd5b6001600160a01b0382351691602081013591810190606081016040820135600160201b81111561028857600080fd5b82018360208201111561029a57600080fd5b803590602001918460208302840111600160201b831117156102bb57600080fd5b509092509050610d99565b6101ed600480360360408110156102dc57600080fd5b506001600160a01b038135169060200135611582565b6101ed6004803603608081101561030857600080fd5b506001600160a01b038135811691602081013590911690604081013590606001356115c8565b6101ed6004803603608081101561034457600080fd5b6001600160a01b038235169190810190604081016020820135600160201b81111561036e57600080fd5b82018360208201111561038057600080fd5b803590602001918460208302840111600160201b831117156103a157600080fd5b919390929091602081019035600160201b8111156103be57600080fd5b8201836020820111156103d057600080fd5b803590602001918460208302840111600160201b831117156103f157600080fd5b919390929091602081019035600160201b81111561040e57600080fd5b82018360208201111561042057600080fd5b803590602001918460208302840111600160201b8311171561044157600080fd5b50909250905061196c565b6000878614610498576040805162461bcd60e51b815260206004820152601360248201527208aa4a4be988a9c8ea890be9a92a69a82a8869606b1b604482015290519081900360640190fd5b8784146104e2576040805162461bcd60e51b815260206004820152601360248201527208aa4a4be988a9c8ea890be9a92a69a82a8869606b1b604482015290519081900360640190fd5b896001600160a01b031663d556c5dc6040518163ffffffff1660e01b8152600401602060405180830381600087803b15801561051d57600080fd5b505af1158015610531573d6000803e3d6000fd5b505050506040513d602081101561054757600080fd5b5051604080516334e1990760e01b81526004810186905290519192506001600160a01b038316916334e199079160248082019260009290919082900301818387803b15801561059557600080fd5b505af11580156105a9573d6000803e3d6000fd5b506000925050505b8881101561094b5760008a8a838181106105c757fe5b905060200201356001600160a01b03169050806001600160a01b03166323b872dd33308c8c878181106105f657fe5b905060200201356040518463ffffffff1660e01b815260040180846001600160a01b03166001600160a01b03168152602001836001600160a01b03166001600160a01b031681526020018281526020019350505050602060405180830381600087803b15801561066557600080fd5b505af1158015610679573d6000803e3d6000fd5b505050506040513d602081101561068f57600080fd5b50516106d0576040805162461bcd60e51b81526020600482015260136024820152600080516020612605833981519152604482015290519081900360640190fd5b60408051636eb1769f60e11b81523060048201526001600160a01b038581166024830152915160009284169163dd62ed3e916044808301926020929190829003018186803b15801561072157600080fd5b505afa158015610735573d6000803e3d6000fd5b505050506040513d602081101561074b57600080fd5b505111156107e157806001600160a01b031663095ea7b38460006040518363ffffffff1660e01b815260040180836001600160a01b03166001600160a01b0316815260200182815260200192505050602060405180830381600087803b1580156107b457600080fd5b505af11580156107c8573d6000803e3d6000fd5b505050506040513d60208110156107de57600080fd5b50505b806001600160a01b031663095ea7b3848b8b868181106107fd57fe5b905060200201356040518363ffffffff1660e01b815260040180836001600160a01b03166001600160a01b0316815260200182815260200192505050602060405180830381600087803b15801561085357600080fd5b505af1158015610867573d6000803e3d6000fd5b505050506040513d602081101561087d57600080fd5b50506001600160a01b03831663e4e1e5388c8c8581811061089a57fe5b905060200201356001600160a01b03168b8b868181106108b657fe5b905060200201358a8a878181106108c957fe5b905060200201356040518463ffffffff1660e01b815260040180846001600160a01b03166001600160a01b031681526020018381526020018281526020019350505050600060405180830381600087803b15801561092657600080fd5b505af115801561093a573d6000803e3d6000fd5b5050600190930192506105b1915050565b508115610ae157806001600160a01b0316634bb278f36040518163ffffffff1660e01b8152600401600060405180830381600087803b15801561098d57600080fd5b505af11580156109a1573d6000803e3d6000fd5b5050604080516370a0823160e01b815230600482015290516001600160a01b038516935063a9059cbb9250339184916370a0823191602480820192602092909190829003018186803b1580156109f657600080fd5b505afa158015610a0a573d6000803e3d6000fd5b505050506040513d6020811015610a2057600080fd5b5051604080516001600160e01b031960e086901b1681526001600160a01b03909316600484015260248301919091525160448083019260209291908290030181600087803b158015610a7157600080fd5b505af1158015610a85573d6000803e3d6000fd5b505050506040513d6020811015610a9b57600080fd5b5051610adc576040805162461bcd60e51b81526020600482015260136024820152600080516020612605833981519152604482015290519081900360640190fd5b610b42565b604080516324dacaa960e11b81526001600482015290516001600160a01b038316916349b5955291602480830192600092919082900301818387803b158015610b2957600080fd5b505af1158015610b3d573d6000803e3d6000fd5b505050505b9998505050505050505050565b604080516324dacaa960e11b8152821515600482015290516001600160a01b038416916349b5955291602480830192600092919082900301818387803b158015610b9857600080fd5b505af1158015610bac573d6000803e3d6000fd5b505050505050565b806001600160a01b0316634bb278f36040518163ffffffff1660e01b8152600401600060405180830381600087803b158015610bef57600080fd5b505af1158015610c03573d6000803e3d6000fd5b5050604080516370a0823160e01b815230600482015290516001600160a01b038516935063a9059cbb9250339184916370a0823191602480820192602092909190829003018186803b158015610c5857600080fd5b505afa158015610c6c573d6000803e3d6000fd5b505050506040513d6020811015610c8257600080fd5b5051604080516001600160e01b031960e086901b1681526001600160a01b03909316600484015260248301919091525160448083019260209291908290030181600087803b158015610cd357600080fd5b505af1158015610ce7573d6000803e3d6000fd5b505050506040513d6020811015610cfd57600080fd5b5051610d3e576040805162461bcd60e51b81526020600482015260136024820152600080516020612605833981519152604482015290519081900360640190fd5b50565b816001600160a01b03166392eefe9b826040518263ffffffff1660e01b815260040180826001600160a01b03166001600160a01b03168152602001915050600060405180830381600087803b158015610b9857600080fd5b6060846001600160a01b031663be3bbd2e6040518163ffffffff1660e01b815260040160006040518083038186803b158015610dd457600080fd5b505afa158015610de8573d6000803e3d6000fd5b505050506040513d6000823e601f3d908101601f191682016040526020811015610e1157600080fd5b8101908080516040519392919084600160201b821115610e3057600080fd5b908301906020820185811115610e4557600080fd5b82518660208202830111600160201b82111715610e6157600080fd5b82525081516020918201928201910280838360005b83811015610e8e578181015183820152602001610e76565b50505050905001604052505050905080518383905014610eeb576040805162461bcd60e51b815260206004820152601360248201527208aa4a4be988a9c8ea890be9a92a69a82a8869606b1b604482015290519081900360640190fd5b60005b81518110156111be576000828281518110610f0557fe5b60200260200101519050806001600160a01b03166323b872dd3330888887818110610f2c57fe5b905060200201356040518463ffffffff1660e01b815260040180846001600160a01b03166001600160a01b03168152602001836001600160a01b03166001600160a01b031681526020018281526020019350505050602060405180830381600087803b158015610f9b57600080fd5b505af1158015610faf573d6000803e3d6000fd5b505050506040513d6020811015610fc557600080fd5b5051611006576040805162461bcd60e51b81526020600482015260136024820152600080516020612605833981519152604482015290519081900360640190fd5b60408051636eb1769f60e11b81523060048201526001600160a01b038981166024830152915160009284169163dd62ed3e916044808301926020929190829003018186803b15801561105757600080fd5b505afa15801561106b573d6000803e3d6000fd5b505050506040513d602081101561108157600080fd5b5051111561111757806001600160a01b031663095ea7b38860006040518363ffffffff1660e01b815260040180836001600160a01b03166001600160a01b0316815260200182815260200192505050602060405180830381600087803b1580156110ea57600080fd5b505af11580156110fe573d6000803e3d6000fd5b505050506040513d602081101561111457600080fd5b50505b806001600160a01b031663095ea7b38887878681811061113357fe5b905060200201356040518363ffffffff1660e01b815260040180836001600160a01b03166001600160a01b0316815260200182815260200192505050602060405180830381600087803b15801561118957600080fd5b505af115801561119d573d6000803e3d6000fd5b505050506040513d60208110156111b357600080fd5b505050600101610eee565b50604080516313da703560e21b81526004810186815260248201928352604482018590526001600160a01b03881692634f69c0d492889288928892606401846020850280828437600081840152601f19601f820116905080830192505050945050505050600060405180830381600087803b15801561123c57600080fd5b505af1158015611250573d6000803e3d6000fd5b506000925050505b815181101561144357600082828151811061126f57fe5b602002602001015190506000816001600160a01b03166370a08231306040518263ffffffff1660e01b815260040180826001600160a01b03166001600160a01b0316815260200191505060206040518083038186803b1580156112d157600080fd5b505afa1580156112e5573d6000803e3d6000fd5b505050506040513d60208110156112fb57600080fd5b5051111561143a57604080516370a0823160e01b815230600482015290516001600160a01b0383169163a9059cbb91339184916370a0823191602480820192602092909190829003018186803b15801561135457600080fd5b505afa158015611368573d6000803e3d6000fd5b505050506040513d602081101561137e57600080fd5b5051604080516001600160e01b031960e086901b1681526001600160a01b03909316600484015260248301919091525160448083019260209291908290030181600087803b1580156113cf57600080fd5b505af11580156113e3573d6000803e3d6000fd5b505050506040513d60208110156113f957600080fd5b505161143a576040805162461bcd60e51b81526020600482015260136024820152600080516020612605833981519152604482015290519081900360640190fd5b50600101611258565b50604080516370a0823160e01b815230600482015290516001600160a01b0387169163a9059cbb91339184916370a0823191602480820192602092909190829003018186803b15801561149557600080fd5b505afa1580156114a9573d6000803e3d6000fd5b505050506040513d60208110156114bf57600080fd5b5051604080516001600160e01b031960e086901b1681526001600160a01b03909316600484015260248301919091525160448083019260209291908290030181600087803b15801561151057600080fd5b505af1158015611524573d6000803e3d6000fd5b505050506040513d602081101561153a57600080fd5b505161157b576040805162461bcd60e51b81526020600482015260136024820152600080516020612605833981519152604482015290519081900360640190fd5b5050505050565b816001600160a01b03166334e19907826040518263ffffffff1660e01b815260040180828152602001915050600060405180830381600087803b158015610b9857600080fd5b604080516323b872dd60e01b815233600482015230602482015260448101849052905184916001600160a01b038316916323b872dd916064808201926020929091908290030181600087803b15801561162057600080fd5b505af1158015611634573d6000803e3d6000fd5b505050506040513d602081101561164a57600080fd5b505161168b576040805162461bcd60e51b81526020600482015260136024820152600080516020612605833981519152604482015290519081900360640190fd5b60408051636eb1769f60e11b81523060048201526001600160a01b038781166024830152915160009284169163dd62ed3e916044808301926020929190829003018186803b1580156116dc57600080fd5b505afa1580156116f0573d6000803e3d6000fd5b505050506040513d602081101561170657600080fd5b5051111561179c57806001600160a01b031663095ea7b38660006040518363ffffffff1660e01b815260040180836001600160a01b03166001600160a01b0316815260200182815260200192505050602060405180830381600087803b15801561176f57600080fd5b505af1158015611783573d6000803e3d6000fd5b505050506040513d602081101561179957600080fd5b50505b806001600160a01b031663095ea7b386856040518363ffffffff1660e01b815260040180836001600160a01b03166001600160a01b0316815260200182815260200192505050602060405180830381600087803b1580156117fc57600080fd5b505af1158015611810573d6000803e3d6000fd5b505050506040513d602081101561182657600080fd5b505060408051635db3427760e01b81526001600160a01b03868116600483015260248201869052604482018590529151600092881691635db3427791606480830192602092919082900301818787803b15801561188257600080fd5b505af1158015611896573d6000803e3d6000fd5b505050506040513d60208110156118ac57600080fd5b50516040805163a9059cbb60e01b81523360048201526024810183905290519192506001600160a01b0388169163a9059cbb916044808201926020929091908290030181600087803b15801561190157600080fd5b505af1158015611915573d6000803e3d6000fd5b505050506040513d602081101561192b57600080fd5b5051610bac576040805162461bcd60e51b81526020600482015260136024820152600080516020612605833981519152604482015290519081900360640190fd5b8483146119b6576040805162461bcd60e51b815260206004820152601360248201527208aa4a4be988a9c8ea890be9a92a69a82a8869606b1b604482015290519081900360640190fd5b848114611a00576040805162461bcd60e51b815260206004820152601360248201527208aa4a4be988a9c8ea890be9a92a69a82a8869606b1b604482015290519081900360640190fd5b60005b858110156125fa576000878783818110611a1957fe5b905060200201356001600160a01b03169050886001600160a01b0316632f37b624898985818110611a4657fe5b905060200201356001600160a01b03166040518263ffffffff1660e01b815260040180826001600160a01b03166001600160a01b0316815260200191505060206040518083038186803b158015611a9c57600080fd5b505afa158015611ab0573d6000803e3d6000fd5b505050506040513d6020811015611ac657600080fd5b5051156120d857886001600160a01b031663f8b2cb4f898985818110611ae857fe5b905060200201356001600160a01b03166040518263ffffffff1660e01b815260040180826001600160a01b03166001600160a01b0316815260200191505060206040518083038186803b158015611b3e57600080fd5b505afa158015611b52573d6000803e3d6000fd5b505050506040513d6020811015611b6857600080fd5b5051868684818110611b7657fe5b905060200201351115611f6657806001600160a01b03166323b872dd33308c6001600160a01b031663f8b2cb4f8d8d89818110611baf57fe5b905060200201356001600160a01b03166040518263ffffffff1660e01b815260040180826001600160a01b03166001600160a01b0316815260200191505060206040518083038186803b158015611c0557600080fd5b505afa158015611c19573d6000803e3d6000fd5b505050506040513d6020811015611c2f57600080fd5b50518a8a88818110611c3d57fe5b90506020020135036040518463ffffffff1660e01b815260040180846001600160a01b03166001600160a01b03168152602001836001600160a01b03166001600160a01b031681526020018281526020019350505050602060405180830381600087803b158015611cad57600080fd5b505af1158015611cc1573d6000803e3d6000fd5b505050506040513d6020811015611cd757600080fd5b5051611d18576040805162461bcd60e51b81526020600482015260136024820152600080516020612605833981519152604482015290519081900360640190fd5b60408051636eb1769f60e11b81523060048201526001600160a01b038b81166024830152915160009284169163dd62ed3e916044808301926020929190829003018186803b158015611d6957600080fd5b505afa158015611d7d573d6000803e3d6000fd5b505050506040513d6020811015611d9357600080fd5b50511115611e2957806001600160a01b031663095ea7b38a60006040518363ffffffff1660e01b815260040180836001600160a01b03166001600160a01b0316815260200182815260200192505050602060405180830381600087803b158015611dfc57600080fd5b505af1158015611e10573d6000803e3d6000fd5b505050506040513d6020811015611e2657600080fd5b50505b806001600160a01b031663095ea7b38a8b6001600160a01b031663f8b2cb4f8c8c88818110611e5457fe5b905060200201356001600160a01b03166040518263ffffffff1660e01b815260040180826001600160a01b03166001600160a01b0316815260200191505060206040518083038186803b158015611eaa57600080fd5b505afa158015611ebe573d6000803e3d6000fd5b505050506040513d6020811015611ed457600080fd5b5051898987818110611ee257fe5b90506020020135036040518363ffffffff1660e01b815260040180836001600160a01b03166001600160a01b0316815260200182815260200192505050602060405180830381600087803b158015611f3957600080fd5b505af1158015611f4d573d6000803e3d6000fd5b505050506040513d6020811015611f6357600080fd5b50505b620f4240868684818110611f7657fe5b90506020020135111561204757886001600160a01b0316633fdddaa2898985818110611f9e57fe5b905060200201356001600160a01b0316888886818110611fba57fe5b90506020020135878787818110611fcd57fe5b905060200201356040518463ffffffff1660e01b815260040180846001600160a01b03166001600160a01b031681526020018381526020018281526020019350505050600060405180830381600087803b15801561202a57600080fd5b505af115801561203e573d6000803e3d6000fd5b505050506120d3565b886001600160a01b031663cf5e7bd389898581811061206257fe5b905060200201356001600160a01b03166040518263ffffffff1660e01b815260040180826001600160a01b03166001600160a01b03168152602001915050600060405180830381600087803b1580156120ba57600080fd5b505af11580156120ce573d6000803e3d6000fd5b505050505b61243e565b806001600160a01b03166323b872dd33308989878181106120f557fe5b905060200201356040518463ffffffff1660e01b815260040180846001600160a01b03166001600160a01b03168152602001836001600160a01b03166001600160a01b031681526020018281526020019350505050602060405180830381600087803b15801561216457600080fd5b505af1158015612178573d6000803e3d6000fd5b505050506040513d602081101561218e57600080fd5b50516121cf576040805162461bcd60e51b81526020600482015260136024820152600080516020612605833981519152604482015290519081900360640190fd5b60408051636eb1769f60e11b81523060048201526001600160a01b038b81166024830152915160009284169163dd62ed3e916044808301926020929190829003018186803b15801561222057600080fd5b505afa158015612234573d6000803e3d6000fd5b505050506040513d602081101561224a57600080fd5b505111156122e057806001600160a01b031663095ea7b38a60006040518363ffffffff1660e01b815260040180836001600160a01b03166001600160a01b0316815260200182815260200192505050602060405180830381600087803b1580156122b357600080fd5b505af11580156122c7573d6000803e3d6000fd5b505050506040513d60208110156122dd57600080fd5b50505b806001600160a01b031663095ea7b38a8888868181106122fc57fe5b905060200201356040518363ffffffff1660e01b815260040180836001600160a01b03166001600160a01b0316815260200182815260200192505050602060405180830381600087803b15801561235257600080fd5b505af1158015612366573d6000803e3d6000fd5b505050506040513d602081101561237c57600080fd5b50506001600160a01b03891663e4e1e53889898581811061239957fe5b905060200201356001600160a01b03168888868181106123b557fe5b905060200201358787878181106123c857fe5b905060200201356040518463ffffffff1660e01b815260040180846001600160a01b03166001600160a01b031681526020018381526020018281526020019350505050600060405180830381600087803b15801561242557600080fd5b505af1158015612439573d6000803e3d6000fd5b505050505b604080516370a0823160e01b815230600482015290516000916001600160a01b038416916370a0823191602480820192602092909190829003018186803b15801561248857600080fd5b505afa15801561249c573d6000803e3d6000fd5b505050506040513d60208110156124b257600080fd5b505111156125f157604080516370a0823160e01b815230600482015290516001600160a01b0383169163a9059cbb91339184916370a0823191602480820192602092909190829003018186803b15801561250b57600080fd5b505afa15801561251f573d6000803e3d6000fd5b505050506040513d602081101561253557600080fd5b5051604080516001600160e01b031960e086901b1681526001600160a01b03909316600484015260248301919091525160448083019260209291908290030181600087803b15801561258657600080fd5b505af115801561259a573d6000803e3d6000fd5b505050506040513d60208110156125b057600080fd5b50516125f1576040805162461bcd60e51b81526020600482015260136024820152600080516020612605833981519152604482015290519081900360640190fd5b50600101611a03565b505050505050505056fe4552525f5452414e534645525f4641494c454400000000000000000000000000a265627a7a7231582023e32efdce2fd99d6993631f6f30987e162b753344f8ca27b2bc7ea86545a32764736f6c63430005110032",
  "source": "  \n// This program is free software: you can redistribute it and/or modify\n// it under the terms of the GNU General Public License as published by\n// the Free Software Foundation, either version 3 of the License, or\n// (at your option) any later version.\n\n// This program is distributed in the hope that it will be useful,\n// but WITHOUT ANY WARRANTY; without even the implied warranty of\n// MERCHANTABILITY or FITNESS FOR A PARTICULAR PURPOSE.  See the\n// GNU General Public License for more details.\n\n// You should have received a copy of the GNU General Public License\n// along with this program.  If not, see <http://www.gnu.org/licenses/>.\n\npragma solidity >=0.5.12;\n\ncontract ERC20 {\n    function balanceOf(address whom) external view returns (uint);\n    function allowance(address, address) external view returns (uint);\n    function approve(address spender, uint amount) external returns (bool);\n    function transfer(address dst, uint amt) external returns (bool);\n    function transferFrom(address sender, address recipient, uint amount) external returns (bool);\n}\n\ncontract BPool is ERC20 {\n    function isBound(address t) external view returns (bool);\n    function getFinalTokens() external view returns(address[] memory);\n    function getBalance(address token) external view returns (uint);\n    function setSwapFee(uint swapFee) external;\n    function setController(address controller) external;\n    function setPublicSwap(bool public_) external;\n    function finalize() external;\n    function bind(address token, uint balance, uint denorm) external;\n    function rebind(address token, uint balance, uint denorm) external;\n    function unbind(address token) external;\n    function joinPool(uint poolAmountOut, uint[] calldata maxAmountsIn) external;\n    function joinswapExternAmountIn(\n        address tokenIn, uint tokenAmountIn, uint minPoolAmountOut\n    ) external returns (uint poolAmountOut);\n}\n\ncontract BFactory {\n    function newBPool() external returns (BPool);\n}\n\n/********************************** WARNING **********************************/\n//                                                                           //\n// This contract is only meant to be used in conjunction with ds-proxy.      //\n// Calling this contract directly will lead to loss of funds.                //\n//                                                                           //\n/********************************** WARNING **********************************/\n\ncontract BActions {\n\n    function create(\n        BFactory factory,\n        address[] calldata tokens,\n        uint[] calldata balances,\n        uint[] calldata denorms,\n        uint swapFee,\n        bool finalize\n    ) external returns (BPool pool) {\n        require(tokens.length == balances.length, \"ERR_LENGTH_MISMATCH\");\n        require(tokens.length == denorms.length, \"ERR_LENGTH_MISMATCH\");\n\n        pool = factory.newBPool();\n        pool.setSwapFee(swapFee);\n\n        for (uint i = 0; i < tokens.length; i++) {\n            ERC20 token = ERC20(tokens[i]);\n            require(token.transferFrom(msg.sender, address(this), balances[i]), \"ERR_TRANSFER_FAILED\");\n            if (token.allowance(address(this), address(pool)) > 0) {\n                token.approve(address(pool), 0);\n            }\n            token.approve(address(pool), balances[i]);\n            pool.bind(tokens[i], balances[i], denorms[i]);\n        }\n\n        if (finalize) {\n            pool.finalize();\n            require(pool.transfer(msg.sender, pool.balanceOf(address(this))), \"ERR_TRANSFER_FAILED\");\n        } else {\n            pool.setPublicSwap(true);\n        }\n    }\n\n    function setTokens(\n        BPool pool,\n        address[] calldata tokens,\n        uint[] calldata balances,\n        uint[] calldata denorms\n    ) external {\n        require(tokens.length == balances.length, \"ERR_LENGTH_MISMATCH\");\n        require(tokens.length == denorms.length, \"ERR_LENGTH_MISMATCH\");\n\n        for (uint i = 0; i < tokens.length; i++) {\n            ERC20 token = ERC20(tokens[i]);\n            if (pool.isBound(tokens[i])) {\n                if (balances[i] > pool.getBalance(tokens[i])) {\n                    require(\n                        token.transferFrom(msg.sender, address(this), balances[i] - pool.getBalance(tokens[i])),\n                        \"ERR_TRANSFER_FAILED\"\n                    );\n                    if (token.allowance(address(this), address(pool)) > 0) {\n                        token.approve(address(pool), 0);\n                    }\n                    token.approve(address(pool), balances[i] - pool.getBalance(tokens[i]));\n                }\n                if (balances[i] > 10**6) {\n                    pool.rebind(tokens[i], balances[i], denorms[i]);\n                } else {\n                    pool.unbind(tokens[i]);\n                }\n\n            } else {\n                require(token.transferFrom(msg.sender, address(this), balances[i]), \"ERR_TRANSFER_FAILED\");\n                if (token.allowance(address(this), address(pool)) > 0) {\n                    token.approve(address(pool), 0);\n                }\n                token.approve(address(pool), balances[i]);\n                pool.bind(tokens[i], balances[i], denorms[i]);\n            }\n\n            if (token.balanceOf(address(this)) > 0) {\n                require(token.transfer(msg.sender, token.balanceOf(address(this))), \"ERR_TRANSFER_FAILED\");\n            }\n\n        }\n    }\n\n    function setPublicSwap(BPool pool, bool publicSwap) external {\n        pool.setPublicSwap(publicSwap);\n    }\n\n    function setSwapFee(BPool pool, uint newFee) external {\n        pool.setSwapFee(newFee);\n    }\n\n    function setController(BPool pool, address newController) external {\n        pool.setController(newController);\n    }\n\n    function finalize(BPool pool) external {\n        pool.finalize();\n        require(pool.transfer(msg.sender, pool.balanceOf(address(this))), \"ERR_TRANSFER_FAILED\");\n    }\n\n    function joinPool(\n        BPool pool,\n        uint poolAmountOut,\n        uint[] calldata maxAmountsIn\n    ) external {\n        address[] memory tokens = pool.getFinalTokens();\n        require(maxAmountsIn.length == tokens.length, \"ERR_LENGTH_MISMATCH\");\n\n        for (uint i = 0; i < tokens.length; i++) {\n            ERC20 token = ERC20(tokens[i]);\n            require(token.transferFrom(msg.sender, address(this), maxAmountsIn[i]), \"ERR_TRANSFER_FAILED\");\n            if (token.allowance(address(this), address(pool)) > 0) {\n                token.approve(address(pool), 0);\n            }\n            token.approve(address(pool), maxAmountsIn[i]);\n        }\n        pool.joinPool(poolAmountOut, maxAmountsIn);\n        for (uint i = 0; i < tokens.length; i++) {\n            ERC20 token = ERC20(tokens[i]);\n            if (token.balanceOf(address(this)) > 0) {\n                require(token.transfer(msg.sender, token.balanceOf(address(this))), \"ERR_TRANSFER_FAILED\");\n            }\n        }\n        require(pool.transfer(msg.sender, pool.balanceOf(address(this))), \"ERR_TRANSFER_FAILED\");\n    }\n\n    function joinswapExternAmountIn(\n        BPool pool,\n        address tokenIn,\n        uint tokenAmountIn,\n        uint minPoolAmountOut\n    ) external {\n        ERC20 token = ERC20(tokenIn);\n        require(token.transferFrom(msg.sender, address(this), tokenAmountIn), \"ERR_TRANSFER_FAILED\");\n        if (token.allowance(address(this), address(pool)) > 0) {\n            token.approve(address(pool), 0);\n        }\n        token.approve(address(pool), tokenAmountIn);\n        uint poolAmountOut = pool.joinswapExternAmountIn(tokenIn, tokenAmountIn, minPoolAmountOut);\n        require(pool.transfer(msg.sender, poolAmountOut), \"ERR_TRANSFER_FAILED\");\n    }\n}",
  "sourcePath": "/media/eagle/Data/Source/Symmetric/BACKUP/Symmetric.Core/contracts/proxies/BActions.sol",
  "compiler": {
    "name": "solc",
    "version": "0.5.17+commit.d19bba13.Emscripten.clang"
  },
  "schemaVersion": "3.3.2",
  "updatedAt": "2021-06-11T09:12:06.661Z",
  "networkType": "ethereum",
  "devdoc": {
    "methods": {}
  },
  "userdoc": {
    "methods": {},
    "notice": "******************************** WARNING *********************************"
  }
}