{
  "contractName": "CTokenBase",
  "abi": [
    {
      "anonymous": false,
      "inputs": [
        {
          "indexed": true,
          "internalType": "address",
          "name": "src",
          "type": "address"
        },
        {
          "indexed": true,
          "internalType": "address",
          "name": "dst",
          "type": "address"
        },
        {
          "indexed": false,
          "internalType": "uint256",
          "name": "amt",
          "type": "uint256"
        }
      ],
      "name": "Approval",
      "type": "event"
    },
    {
      "anonymous": false,
      "inputs": [
        {
          "indexed": true,
          "internalType": "address",
          "name": "src",
          "type": "address"
        },
        {
          "indexed": true,
          "internalType": "address",
          "name": "dst",
          "type": "address"
        },
        {
          "indexed": false,
          "internalType": "uint256",
          "name": "amt",
          "type": "uint256"
        }
      ],
      "name": "Transfer",
      "type": "event"
    },
    {
      "constant": true,
      "inputs": [],
      "name": "BONE",
      "outputs": [
        {
          "internalType": "uint256",
          "name": "",
          "type": "uint256"
        }
      ],
      "payable": false,
      "stateMutability": "view",
      "type": "function"
    },
    {
      "constant": true,
      "inputs": [],
      "name": "BPOW_PRECISION",
      "outputs": [
        {
          "internalType": "uint256",
          "name": "",
          "type": "uint256"
        }
      ],
      "payable": false,
      "stateMutability": "view",
      "type": "function"
    },
    {
      "constant": true,
      "inputs": [],
      "name": "EXIT_FEE",
      "outputs": [
        {
          "internalType": "uint256",
          "name": "",
          "type": "uint256"
        }
      ],
      "payable": false,
      "stateMutability": "view",
      "type": "function"
    },
    {
      "constant": true,
      "inputs": [],
      "name": "INIT_POOL_SUPPLY",
      "outputs": [
        {
          "internalType": "uint256",
          "name": "",
          "type": "uint256"
        }
      ],
      "payable": false,
      "stateMutability": "view",
      "type": "function"
    },
    {
      "constant": true,
      "inputs": [],
      "name": "MAX_BOUND_TOKENS",
      "outputs": [
        {
          "internalType": "uint256",
          "name": "",
          "type": "uint256"
        }
      ],
      "payable": false,
      "stateMutability": "view",
      "type": "function"
    },
    {
      "constant": true,
      "inputs": [],
      "name": "MAX_BPOW_BASE",
      "outputs": [
        {
          "internalType": "uint256",
          "name": "",
          "type": "uint256"
        }
      ],
      "payable": false,
      "stateMutability": "view",
      "type": "function"
    },
    {
      "constant": true,
      "inputs": [],
      "name": "MAX_FEE",
      "outputs": [
        {
          "internalType": "uint256",
          "name": "",
          "type": "uint256"
        }
      ],
      "payable": false,
      "stateMutability": "view",
      "type": "function"
    },
    {
      "constant": true,
      "inputs": [],
      "name": "MAX_IN_RATIO",
      "outputs": [
        {
          "internalType": "uint256",
          "name": "",
          "type": "uint256"
        }
      ],
      "payable": false,
      "stateMutability": "view",
      "type": "function"
    },
    {
      "constant": true,
      "inputs": [],
      "name": "MAX_OUT_RATIO",
      "outputs": [
        {
          "internalType": "uint256",
          "name": "",
          "type": "uint256"
        }
      ],
      "payable": false,
      "stateMutability": "view",
      "type": "function"
    },
    {
      "constant": true,
      "inputs": [],
      "name": "MAX_TOTAL_WEIGHT",
      "outputs": [
        {
          "internalType": "uint256",
          "name": "",
          "type": "uint256"
        }
      ],
      "payable": false,
      "stateMutability": "view",
      "type": "function"
    },
    {
      "constant": true,
      "inputs": [],
      "name": "MAX_WEIGHT",
      "outputs": [
        {
          "internalType": "uint256",
          "name": "",
          "type": "uint256"
        }
      ],
      "payable": false,
      "stateMutability": "view",
      "type": "function"
    },
    {
      "constant": true,
      "inputs": [],
      "name": "MIN_BALANCE",
      "outputs": [
        {
          "internalType": "uint256",
          "name": "",
          "type": "uint256"
        }
      ],
      "payable": false,
      "stateMutability": "view",
      "type": "function"
    },
    {
      "constant": true,
      "inputs": [],
      "name": "MIN_BOUND_TOKENS",
      "outputs": [
        {
          "internalType": "uint256",
          "name": "",
          "type": "uint256"
        }
      ],
      "payable": false,
      "stateMutability": "view",
      "type": "function"
    },
    {
      "constant": true,
      "inputs": [],
      "name": "MIN_BPOW_BASE",
      "outputs": [
        {
          "internalType": "uint256",
          "name": "",
          "type": "uint256"
        }
      ],
      "payable": false,
      "stateMutability": "view",
      "type": "function"
    },
    {
      "constant": true,
      "inputs": [],
      "name": "MIN_FEE",
      "outputs": [
        {
          "internalType": "uint256",
          "name": "",
          "type": "uint256"
        }
      ],
      "payable": false,
      "stateMutability": "view",
      "type": "function"
    },
    {
      "constant": true,
      "inputs": [],
      "name": "MIN_WEIGHT",
      "outputs": [
        {
          "internalType": "uint256",
          "name": "",
          "type": "uint256"
        }
      ],
      "payable": false,
      "stateMutability": "view",
      "type": "function"
    },
    {
      "constant": true,
      "inputs": [],
      "name": "getColor",
      "outputs": [
        {
          "internalType": "bytes32",
          "name": "",
          "type": "bytes32"
        }
      ],
      "payable": false,
      "stateMutability": "view",
      "type": "function"
    }
  ],
  "bytecode": "0x608060405234801561001057600080fd5b50610268806100206000396000f3fe608060405234801561001057600080fd5b50600436106100eb5760003560e01c8063b0e0d13611610092578063b0e0d13614610142578063b7b800a41461014a578063ba019dab14610152578063bc063e1a1461015a578063bc694ea214610162578063c36596a614610112578063c6580d121461016a578063e4a28a52146100f0578063ec09302114610172576100eb565b806309a3bbe4146100f0578063189d00ca1461010a578063218b53821461011257806376c7a3c71461011a578063867378c5146101225780639381cd2b1461012a578063992e2a92146101325780639a86139b1461013a575b600080fd5b6100f861017a565b60408051918252519081900360200190f35b6100f8610187565b6100f861019b565b6100f86101a7565b6100f86101b9565b6100f86101cd565b6100f86101da565b6100f86101e6565b6100f86101f3565b6100f86101f8565b6100f86101fd565b6100f8610202565b6100f8610212565b6100f861021e565b6100f8610223565b6802b5e3af16b188000081565b6402540be400670de0b6b3a76400005b0481565b670de0b6b3a764000081565b620f4240670de0b6b3a7640000610197565b64e8d4a51000670de0b6b3a7640000610197565b68056bc75e2d6310000081565b6704a03ce68d21555681565b6542524f4e5a4560d01b90565b600881565b600281565b600181565b600a670de0b6b3a7640000610197565b671bc16d674ec7ffff81565b600081565b6002670de0b6b3a764000061019756fea265627a7a723158204b713c73d1ccfc8f32c95d094ebcbb9eee85f3148573519b2c2e6260a0c1e76864736f6c63430005110032",
  "source": "// This program is free software: you can redistribute it and/or modify\n// it under the terms of the GNU General Public License as published by\n// the Free Software Foundation, either version 3 of the License, or\n// (at your option) any later version.\n\n// This program is distributed in the hope that it will be useful,\n// but WITHOUT ANY WARRANTY; without even the implied warranty of\n// MERCHANTABILITY or FITNESS FOR A PARTICULAR PURPOSE.  See the\n// GNU General Public License for more details.\n\n// You should have received a copy of the GNU General Public License\n// along with this program.  If not, see <http://www.gnu.org/licenses/>.\n\npragma solidity >=0.5.16;\n\nimport \"./BNum.sol\";\n\n// Highly opinionated token implementation\n\ninterface IERC20 {\n    event Approval(address indexed src, address indexed dst, uint amt);\n    event Transfer(address indexed src, address indexed dst, uint amt);\n\n    function totalSupply() external view returns (uint);\n    function balanceOf(address whom) external view returns (uint);\n    function allowance(address src, address dst) external view returns (uint);\n\n    function approve(address dst, uint amt) external returns (bool);\n    function transfer(address dst, uint amt) external returns (bool);\n    function transferFrom(\n        address src, address dst, uint amt\n    ) external returns (bool);\n}\n\ncontract CTokenBase is BNum {\n\n    mapping(address => uint)                   internal _balance;\n    mapping(address => mapping(address=>uint)) internal _allowance;\n    uint internal _totalSupply;\n\n    event Approval(address indexed src, address indexed dst, uint amt);\n    event Transfer(address indexed src, address indexed dst, uint amt);\n\n    function _mint(uint amt) internal {\n        _balance[address(this)] = badd(_balance[address(this)], amt);\n        _totalSupply = badd(_totalSupply, amt);\n        emit Transfer(address(0), address(this), amt);\n    }\n\n    function _burn(uint amt) internal {\n        require(_balance[address(this)] >= amt, \"ERR_INSUFFICIENT_BAL\");\n        _balance[address(this)] = bsub(_balance[address(this)], amt);\n        _totalSupply = bsub(_totalSupply, amt);\n        emit Transfer(address(this), address(0), amt);\n    }\n\n    function _move(address src, address dst, uint amt) internal {\n        require(_balance[src] >= amt, \"ERR_INSUFFICIENT_BAL\");\n        _balance[src] = bsub(_balance[src], amt);\n        _balance[dst] = badd(_balance[dst], amt);\n        emit Transfer(src, dst, amt);\n    }\n\n    function _push(address to, uint amt) internal {\n        _move(address(this), to, amt);\n    }\n\n    function _pull(address from, uint amt) internal {\n        _move(from, address(this), amt);\n    }\n}\n\ncontract CToken is CTokenBase, IERC20 {\n\n    string  private _name     = \"Cent Pool Token\";\n    string  private _symbol   = \"CPT\";\n    uint8   private _decimals = 18;\n\n    function name() public view returns (string memory) {\n        return _name;\n    }\n\n    function symbol() public view returns (string memory) {\n        return _symbol;\n    }\n\n    function decimals() public view returns(uint8) {\n        return _decimals;\n    }\n\n    function allowance(address src, address dst) external view returns (uint) {\n        return _allowance[src][dst];\n    }\n\n    function balanceOf(address whom) external view returns (uint) {\n        return _balance[whom];\n    }\n\n    function totalSupply() public view returns (uint) {\n        return _totalSupply;\n    }\n\n    function approve(address dst, uint amt) external returns (bool) {\n        _allowance[msg.sender][dst] = amt;\n        emit Approval(msg.sender, dst, amt);\n        return true;\n    }\n\n    function increaseApproval(address dst, uint amt) external returns (bool) {\n        _allowance[msg.sender][dst] = badd(_allowance[msg.sender][dst], amt);\n        emit Approval(msg.sender, dst, _allowance[msg.sender][dst]);\n        return true;\n    }\n\n    function decreaseApproval(address dst, uint amt) external returns (bool) {\n        uint oldValue = _allowance[msg.sender][dst];\n        if (amt > oldValue) {\n            _allowance[msg.sender][dst] = 0;\n        } else {\n            _allowance[msg.sender][dst] = bsub(oldValue, amt);\n        }\n        emit Approval(msg.sender, dst, _allowance[msg.sender][dst]);\n        return true;\n    }\n\n    function transfer(address dst, uint amt) external returns (bool) {\n        _move(msg.sender, dst, amt);\n        return true;\n    }\n\n    function transferFrom(address src, address dst, uint amt) external returns (bool) {\n        require(msg.sender == src || amt <= _allowance[src][msg.sender], \"ERR_CTOKEN_BAD_CALLER\");\n        _move(src, dst, amt);\n        if (msg.sender != src && _allowance[src][msg.sender] != uint256(-1)) {\n            _allowance[src][msg.sender] = bsub(_allowance[src][msg.sender], amt);\n            emit Approval(msg.sender, dst, _allowance[src][msg.sender]);\n        }\n        return true;\n    }\n}\n",
  "sourcePath": "/media/eagle/Data/Source/Symmetric/BACKUP/Symmetric.Core/contracts/CToken.sol",
  "compiler": {
    "name": "solc",
    "version": "0.5.17+commit.d19bba13.Emscripten.clang"
  },
  "schemaVersion": "3.3.4",
  "updatedAt": "2021-05-15T20:34:25.154Z",
  "devdoc": {
    "methods": {}
  },
  "userdoc": {
    "methods": {}
  }
}