{
  "contractName": "DSAuth",
  "abi": [
    {
      "inputs": [],
      "payable": false,
      "stateMutability": "nonpayable",
      "type": "constructor"
    },
    {
      "anonymous": false,
      "inputs": [
        {
          "indexed": true,
          "internalType": "address",
          "name": "authority",
          "type": "address"
        }
      ],
      "name": "LogSetAuthority",
      "type": "event"
    },
    {
      "anonymous": false,
      "inputs": [
        {
          "indexed": true,
          "internalType": "address",
          "name": "owner",
          "type": "address"
        }
      ],
      "name": "LogSetOwner",
      "type": "event"
    },
    {
      "constant": true,
      "inputs": [],
      "name": "authority",
      "outputs": [
        {
          "internalType": "contract DSAuthority",
          "name": "",
          "type": "address"
        }
      ],
      "payable": false,
      "stateMutability": "view",
      "type": "function"
    },
    {
      "constant": true,
      "inputs": [],
      "name": "owner",
      "outputs": [
        {
          "internalType": "address",
          "name": "",
          "type": "address"
        }
      ],
      "payable": false,
      "stateMutability": "view",
      "type": "function"
    },
    {
      "constant": false,
      "inputs": [
        {
          "internalType": "address",
          "name": "owner_",
          "type": "address"
        }
      ],
      "name": "setOwner",
      "outputs": [],
      "payable": false,
      "stateMutability": "nonpayable",
      "type": "function"
    },
    {
      "constant": false,
      "inputs": [
        {
          "internalType": "contract DSAuthority",
          "name": "authority_",
          "type": "address"
        }
      ],
      "name": "setAuthority",
      "outputs": [],
      "payable": false,
      "stateMutability": "nonpayable",
      "type": "function"
    }
  ],
  "bytecode": "0x608060405234801561001057600080fd5b50600180546001600160a01b031916339081179091556040517fce241d7ca1f669fee44b6fc00b8eba2df3bb514eed0f6f668f8f89096e81ed9490600090a261035f8061005e6000396000f3fe608060405234801561001057600080fd5b506004361061004c5760003560e01c806313af4035146100515780637a9e5e4b146100795780638da5cb5b1461009f578063bf7e214f146100c3575b600080fd5b6100776004803603602081101561006757600080fd5b50356001600160a01b03166100cb565b005b6100776004803603602081101561008f57600080fd5b50356001600160a01b0316610179565b6100a7610223565b604080516001600160a01b039092168252519081900360200190f35b6100a7610232565b6100e1336000356001600160e01b031916610241565b610129576040805162461bcd60e51b8152602060048201526014602482015273191ccb585d5d1a0b5d5b985d5d1a1bdc9a5e995960621b604482015290519081900360640190fd5b600180546001600160a01b0319166001600160a01b0383811691909117918290556040519116907fce241d7ca1f669fee44b6fc00b8eba2df3bb514eed0f6f668f8f89096e81ed9490600090a250565b61018f336000356001600160e01b031916610241565b6101d7576040805162461bcd60e51b8152602060048201526014602482015273191ccb585d5d1a0b5d5b985d5d1a1bdc9a5e995960621b604482015290519081900360640190fd5b600080546001600160a01b0319166001600160a01b03838116919091178083556040519116917f1abebea81bfa2637f28358c371278fb15ede7ea8dd28d2e03b112ff6d936ada491a250565b6001546001600160a01b031681565b6000546001600160a01b031681565b60006001600160a01b03831630141561025c57506001610324565b6001546001600160a01b038481169116141561027a57506001610324565b6000546001600160a01b031661029257506000610324565b6000546040805163b700961360e01b81526001600160a01b0386811660048301523060248301526001600160e01b0319861660448301529151919092169163b7009613916064808301926020929190829003018186803b1580156102f557600080fd5b505afa158015610309573d6000803e3d6000fd5b505050506040513d602081101561031f57600080fd5b505190505b9291505056fea265627a7a72315820bfa3900c58955db3e95f81a34dbb2e4c101610042c1eba3444c85aa95bb92b0564736f6c63430005110032",
  "source": "\n// proxy.sol - execute actions atomically through the proxy's identity\n\n// Copyright (C) 2017  DappHub, LLC\n\n// This program is free software: you can redistribute it and/or modify\n// it under the terms of the GNU General Public License as published by\n// the Free Software Foundation, either version 3 of the License, or\n// (at your option) any later version.\n\n// This program is distributed in the hope that it will be useful,\n// but WITHOUT ANY WARRANTY; without even the implied warranty of\n// MERCHANTABILITY or FITNESS FOR A PARTICULAR PURPOSE.  See the\n// GNU General Public License for more details.\n\n// You should have received a copy of the GNU General Public License\n// along with this program.  If not, see <http://www.gnu.org/licenses/>.\n\npragma solidity >=0.5.12;\n\ninterface DSAuthority {\n    function canCall(\n        address src, address dst, bytes4 sig\n    ) external view returns (bool);\n}\n\ncontract DSAuthEvents {\n    event LogSetAuthority (address indexed authority);\n    event LogSetOwner     (address indexed owner);\n}\n\ncontract DSAuth is DSAuthEvents {\n    DSAuthority  public  authority;\n    address      public  owner;\n\n    constructor() public {\n        owner = msg.sender;\n        emit LogSetOwner(msg.sender);\n    }\n\n    function setOwner(address owner_)\n        public\n        auth\n    {\n        owner = owner_;\n        emit LogSetOwner(owner);\n    }\n\n    function setAuthority(DSAuthority authority_)\n        public\n        auth\n    {\n        authority = authority_;\n        emit LogSetAuthority(address(authority));\n    }\n\n    modifier auth {\n        require(isAuthorized(msg.sender, msg.sig), \"ds-auth-unauthorized\");\n        _;\n    }\n\n    function isAuthorized(address src, bytes4 sig) internal view returns (bool) {\n        if (src == address(this)) {\n            return true;\n        } else if (src == owner) {\n            return true;\n        } else if (authority == DSAuthority(0)) {\n            return false;\n        } else {\n            return authority.canCall(src, address(this), sig);\n        }\n    }\n}\n\ncontract DSNote {\n    event LogNote(\n        bytes4   indexed  sig,\n        address  indexed  guy,\n        bytes32  indexed  foo,\n        bytes32  indexed  bar,\n        uint256           wad,\n        bytes             fax\n    ) anonymous;\n\n    modifier note {\n        bytes32 foo;\n        bytes32 bar;\n        uint256 wad;\n\n        assembly {\n            foo := calldataload(4)\n            bar := calldataload(36)\n            wad := callvalue()\n        }\n\n        _;\n\n        emit LogNote(msg.sig, msg.sender, foo, bar, wad, msg.data);\n    }\n}\n\n// DSProxy\n// Allows code execution using a persistant identity This can be very\n// useful to execute a sequence of atomic actions. Since the owner of\n// the proxy can be changed, this allows for dynamic ownership models\n// i.e. a multisig\ncontract DSProxy is DSAuth, DSNote {\n    DSProxyCache public cache;  // global cache for contracts\n\n    constructor(address _cacheAddr) public {\n        setCache(_cacheAddr);\n    }\n\n    function() external payable {\n    }\n\n    // use the proxy to execute calldata _data on contract _code\n    function execute(bytes memory _code, bytes memory _data)\n        public\n        payable\n        returns (address target, bytes memory response)\n    {\n        target = cache.read(_code);\n        if (target == address(0)) {\n            // deploy contract & store its address in cache\n            target = cache.write(_code);\n        }\n\n        response = execute(target, _data);\n    }\n\n    function execute(address _target, bytes memory _data)\n        public\n        auth\n        note\n        payable\n        returns (bytes memory response)\n    {\n        require(_target != address(0), \"ds-proxy-target-address-required\");\n\n        // call contract in current context\n        assembly {\n            let succeeded := delegatecall(sub(gas, 50000), _target, add(_data, 0x20), mload(_data), 0, 0)\n            let size := returndatasize\n\n            response := mload(0x40)\n            mstore(0x40, add(response, and(add(add(size, 0x20), 0x1f), not(0x1f))))\n            mstore(response, size)\n            returndatacopy(add(response, 0x20), 0, size)\n\n            switch iszero(succeeded)\n            case 1 {\n                // throw if delegatecall failed\n                revert(add(response, 0x20), size)\n            }\n        }\n    }\n\n    //set new cache\n    function setCache(address _cacheAddr)\n        public\n        auth\n        note\n        returns (bool)\n    {\n        require(_cacheAddr != address(0), \"ds-proxy-cache-address-required\");\n        cache = DSProxyCache(_cacheAddr);  // overwrite cache\n        return true;\n    }\n}\n\n// DSProxyFactory\n// This factory deploys new proxy instances through build()\n// Deployed proxy addresses are logged\ncontract DSProxyFactory {\n    event Created(address indexed sender, address indexed owner, address proxy, address cache);\n    mapping(address=>bool) public isProxy;\n    DSProxyCache public cache;\n\n    constructor() public {\n        cache = new DSProxyCache();\n    }\n\n    // deploys a new proxy instance\n    // sets owner of proxy to caller\n    function build() public returns (address payable proxy) {\n        proxy = build(msg.sender);\n    }\n\n    // deploys a new proxy instance\n    // sets custom owner of proxy\n    function build(address owner) public returns (address payable proxy) {\n        proxy = address(new DSProxy(address(cache)));\n        emit Created(msg.sender, owner, address(proxy), address(cache));\n        DSProxy(proxy).setOwner(owner);\n        isProxy[proxy] = true;\n    }\n}\n\n// DSProxyCache\n// This global cache stores addresses of contracts previously deployed\n// by a proxy. This saves gas from repeat deployment of the same\n// contracts and eliminates blockchain bloat.\n\n// By default, all proxies deployed from the same factory store\n// contracts in the same cache. The cache a proxy instance uses can be\n// changed.  The cache uses the sha3 hash of a contract's bytecode to\n// lookup the address\ncontract DSProxyCache {\n    mapping(bytes32 => address) cache;\n\n    function read(bytes memory _code) public view returns (address) {\n        bytes32 hash = keccak256(_code);\n        return cache[hash];\n    }\n\n    function write(bytes memory _code) public returns (address target) {\n        assembly {\n            target := create(0, add(_code, 0x20), mload(_code))\n            switch iszero(extcodesize(target))\n            case 1 {\n                // throw if contract failed to deploy\n                revert(0, 0)\n            }\n        }\n        bytes32 hash = keccak256(_code);\n        cache[hash] = target;\n    }\n}",
  "sourcePath": "/media/eagle/Data/Source/Symmetric/BACKUP/Symmetric.Core/contracts/proxies/DSProxyFactory.sol",
  "compiler": {
    "name": "solc",
    "version": "0.5.17+commit.d19bba13.Emscripten.clang"
  },
  "schemaVersion": "3.3.2",
  "updatedAt": "2021-06-11T09:10:33.281Z",
  "devdoc": {
    "methods": {}
  },
  "userdoc": {
    "methods": {}
  }
}