{
  "contractName": "Multicall",
  "abi": [
    {
      "constant": false,
      "inputs": [
        {
          "components": [
            {
              "internalType": "address",
              "name": "target",
              "type": "address"
            },
            {
              "internalType": "bytes",
              "name": "callData",
              "type": "bytes"
            }
          ],
          "internalType": "struct Multicall.Call[]",
          "name": "calls",
          "type": "tuple[]"
        }
      ],
      "name": "aggregate",
      "outputs": [
        {
          "internalType": "uint256",
          "name": "blockNumber",
          "type": "uint256"
        },
        {
          "internalType": "bytes[]",
          "name": "returnData",
          "type": "bytes[]"
        }
      ],
      "payable": false,
      "stateMutability": "nonpayable",
      "type": "function"
    },
    {
      "constant": true,
      "inputs": [
        {
          "internalType": "address",
          "name": "addr",
          "type": "address"
        }
      ],
      "name": "getEthBalance",
      "outputs": [
        {
          "internalType": "uint256",
          "name": "balance",
          "type": "uint256"
        }
      ],
      "payable": false,
      "stateMutability": "view",
      "type": "function"
    },
    {
      "constant": true,
      "inputs": [
        {
          "internalType": "uint256",
          "name": "blockNumber",
          "type": "uint256"
        }
      ],
      "name": "getBlockHash",
      "outputs": [
        {
          "internalType": "bytes32",
          "name": "blockHash",
          "type": "bytes32"
        }
      ],
      "payable": false,
      "stateMutability": "view",
      "type": "function"
    },
    {
      "constant": true,
      "inputs": [],
      "name": "getLastBlockHash",
      "outputs": [
        {
          "internalType": "bytes32",
          "name": "blockHash",
          "type": "bytes32"
        }
      ],
      "payable": false,
      "stateMutability": "view",
      "type": "function"
    },
    {
      "constant": true,
      "inputs": [],
      "name": "getCurrentBlockTimestamp",
      "outputs": [
        {
          "internalType": "uint256",
          "name": "timestamp",
          "type": "uint256"
        }
      ],
      "payable": false,
      "stateMutability": "view",
      "type": "function"
    },
    {
      "constant": true,
      "inputs": [],
      "name": "getCurrentBlockDifficulty",
      "outputs": [
        {
          "internalType": "uint256",
          "name": "difficulty",
          "type": "uint256"
        }
      ],
      "payable": false,
      "stateMutability": "view",
      "type": "function"
    },
    {
      "constant": true,
      "inputs": [],
      "name": "getCurrentBlockGasLimit",
      "outputs": [
        {
          "internalType": "uint256",
          "name": "gaslimit",
          "type": "uint256"
        }
      ],
      "payable": false,
      "stateMutability": "view",
      "type": "function"
    },
    {
      "constant": true,
      "inputs": [],
      "name": "getCurrentBlockCoinbase",
      "outputs": [
        {
          "internalType": "address",
          "name": "coinbase",
          "type": "address"
        }
      ],
      "payable": false,
      "stateMutability": "view",
      "type": "function"
    }
  ],
  "bytecode": "0x608060405234801561001057600080fd5b50610689806100206000396000f3fe608060405234801561001057600080fd5b50600436106100785760003560e01c80630f28c97d1461007d578063252dba421461009b57806327e86d6e146100bc5780634d2301cc146100c457806372425d9d146100d757806386d516e8146100df578063a8b0574e146100e7578063ee82ac5e146100fc575b600080fd5b61008561010f565b6040516100929190610510565b60405180910390f35b6100ae6100a93660046103a3565b610113565b60405161009292919061051e565b610085610221565b6100856100d236600461037d565b61022a565b610085610237565b61008561023b565b6100ef61023f565b6040516100929190610502565b61008561010a3660046103d8565b610243565b4290565b60006060439150825160405190808252806020026020018201604052801561014f57816020015b606081526020019060019003908161013a5790505b50905060005b835181101561021b576000606085838151811061016e57fe5b6020026020010151600001516001600160a01b031686848151811061018f57fe5b6020026020010151602001516040516101a891906104f6565b6000604051808303816000865af19150503d80600081146101e5576040519150601f19603f3d011682016040523d82523d6000602084013e6101ea565b606091505b5091509150816101f957600080fd5b8084848151811061020657fe5b60209081029190910101525050600101610155565b50915091565b60001943014090565b6001600160a01b03163190565b4490565b4590565b4190565b4090565b803561025281610626565b92915050565b600082601f83011261026957600080fd5b813561027c61027782610565565b61053e565b81815260209384019390925082018360005b838110156102ba57813586016102a48882610313565b845250602092830192919091019060010161028e565b5050505092915050565b600082601f8301126102d557600080fd5b81356102e361027782610586565b915080825260208301602083018583830111156102ff57600080fd5b61030a8382846105e0565b50505092915050565b60006040828403121561032557600080fd5b61032f604061053e565b9050600061033d8484610247565b825250602082013567ffffffffffffffff81111561035a57600080fd5b610366848285016102c4565b60208301525092915050565b80356102528161063d565b60006020828403121561038f57600080fd5b600061039b8484610247565b949350505050565b6000602082840312156103b557600080fd5b813567ffffffffffffffff8111156103cc57600080fd5b61039b84828501610258565b6000602082840312156103ea57600080fd5b600061039b8484610372565b6000610402838361048f565b9392505050565b610412816105c6565b82525050565b6000610423826105b4565b61042d81856105b8565b93508360208202850161043f856105ae565b8060005b85811015610479578484038952815161045c85826103f6565b9450610467836105ae565b60209a909a0199925050600101610443565b5091979650505050505050565b610412816105d1565b600061049a826105b4565b6104a481856105b8565b93506104b48185602086016105ec565b6104bd8161061c565b9093019392505050565b60006104d2826105b4565b6104dc81856105c1565b93506104ec8185602086016105ec565b9290920192915050565b600061040282846104c7565b602081016102528284610409565b602081016102528284610486565b6040810161052c8285610486565b818103602083015261039b8184610418565b60405181810167ffffffffffffffff8111828210171561055d57600080fd5b604052919050565b600067ffffffffffffffff82111561057c57600080fd5b5060209081020190565b600067ffffffffffffffff82111561059d57600080fd5b506020601f91909101601f19160190565b60200190565b5190565b90815260200190565b919050565b6000610252826105d4565b90565b6001600160a01b031690565b82818337506000910152565b60005b838110156106075781810151838201526020016105ef565b83811115610616576000848401525b50505050565b601f01601f191690565b61062f816105c6565b811461063a57600080fd5b50565b61062f816105d156fea365627a7a723158208ad1455ad82b7465e2efdc06ea92d351a1e05c9018b22841b82d875773a1fa926c6578706572696d656e74616cf564736f6c63430005110040",
  "source": "pragma solidity >=0.5.0;\npragma experimental ABIEncoderV2;\n\n/// @title Multicall - Aggregate results from multiple read-only function calls\n/// @author Michael Elliot <mike@makerdao.com>\n/// @author Joshua Levine <joshua@makerdao.com>\n/// @author Nick Johnson <arachnid@notdot.net>\n\ncontract Multicall {\n    struct Call {\n        address target;\n        bytes callData;\n    }\n    function aggregate(Call[] memory calls) public returns (uint256 blockNumber, bytes[] memory returnData) {\n        blockNumber = block.number;\n        returnData = new bytes[](calls.length);\n        for(uint256 i = 0; i < calls.length; i++) {\n            (bool success, bytes memory ret) = calls[i].target.call(calls[i].callData);\n            require(success);\n            returnData[i] = ret;\n        }\n    }\n    // Helper functions\n    function getEthBalance(address addr) public view returns (uint256 balance) {\n        balance = addr.balance;\n    }\n    function getBlockHash(uint256 blockNumber) public view returns (bytes32 blockHash) {\n        blockHash = blockhash(blockNumber);\n    }\n    function getLastBlockHash() public view returns (bytes32 blockHash) {\n        blockHash = blockhash(block.number - 1);\n    }\n    function getCurrentBlockTimestamp() public view returns (uint256 timestamp) {\n        timestamp = block.timestamp;\n    }\n    function getCurrentBlockDifficulty() public view returns (uint256 difficulty) {\n        difficulty = block.difficulty;\n    }\n    function getCurrentBlockGasLimit() public view returns (uint256 gaslimit) {\n        gaslimit = block.gaslimit;\n    }\n    function getCurrentBlockCoinbase() public view returns (address coinbase) {\n        coinbase = block.coinbase;\n    }\n}",
  "sourcePath": "/media/eagle/Data/Source/Symmetric/BACKUP/Symmetric.Core/contracts/helpers/Multicall.sol",
  "compiler": {
    "name": "solc",
    "version": "0.5.17+commit.d19bba13.Emscripten.clang"
  },
  "schemaVersion": "3.3.2",
  "updatedAt": "2021-06-11T09:12:06.675Z",
  "networkType": "ethereum",
  "devdoc": {
    "author": "Michael Elliot <mike@makerdao.com>Joshua Levine <joshua@makerdao.com>Nick Johnson <arachnid@notdot.net>",
    "methods": {},
    "title": "Multicall - Aggregate results from multiple read-only function calls"
  },
  "userdoc": {
    "methods": {}
  }
}